:10000300E4F580F508F509AF09A807740108800233
:10001300C333D8FC42807FC87E001200620509E525
:100023000970020508C39408E508940040D9E4F573
:1000330008F509C3E5099408E508940050C2AF091F
:10004300A8077401088002C333D8FCF452807FC828
:0F0053007E001200620509E50970D8050880D407
:10006200E4FDFCC3ED9FEC9E5015E4FBFA0BBB00D4
:0F007200010AEB647B4A70F50DBD00010C80E4C0
:01008100225C
:0300000002008279
:0C008200787FE4F6D8FD758109020003C8
:00000001FF
