:040054007FF47E01B6
:10005800E4FDFCC3ED9FEC9E5015E4FBFA0BBB00DE
:0F006800010AEB647B4A70F50DBD00010C80E4CA
:010077002266
:10000300900000E4F5801200547580FF120058A39D
:10001300E5826405458370EBE4F583F5827580AA78
:10002300120054758055120058A3E5826405458378
:1000330070EBE4F583F582C3E5829405E5839400D0
:1000430050BE7580F012005475800F120058A380C3
:01005300E6C6
:0300000002007883
:0C007800787FE4F6D8FD758107020003D4
:00000001FF
